{
  "_format": "hh-sol-artifact-1",
  "contractName": "MonarchEvents",
  "sourceName": "contracts/MonarchEvents.sol",
  "abi": [
    {
      "inputs": [
        {
          "internalType": "string",
          "name": "name_",
          "type": "string"
        },
        {
          "internalType": "string",
          "name": "symbol_",
          "type": "string"
        },
        {
          "internalType": "string",
          "name": "uri_",
          "type": "string"
        }
      ],
      "stateMutability": "nonpayable",
      "type": "constructor"
    },
    {
      "anonymous": false,
      "inputs": [
        {
          "indexed": true,
          "internalType": "address",
          "name": "account",
          "type": "address"
        },
        {
          "indexed": true,
          "internalType": "address",
          "name": "operator",
          "type": "address"
        },
        {
          "indexed": false,
          "internalType": "bool",
          "name": "approved",
          "type": "bool"
        }
      ],
      "name": "ApprovalForAll",
      "type": "event"
    },
    {
      "anonymous": false,
      "inputs": [
        {
          "indexed": false,
          "internalType": "address",
          "name": "account",
          "type": "address"
        },
        {
          "indexed": false,
          "internalType": "uint256",
          "name": "tokenId",
          "type": "uint256"
        },
        {
          "indexed": false,
          "internalType": "uint256",
          "name": "proofId",
          "type": "uint256"
        }
      ],
      "name": "Mint",
      "type": "event"
    },
    {
      "anonymous": false,
      "inputs": [
        {
          "indexed": true,
          "internalType": "address",
          "name": "previousOwner",
          "type": "address"
        },
        {
          "indexed": true,
          "internalType": "address",
          "name": "newOwner",
          "type": "address"
        }
      ],
      "name": "OwnershipTransferred",
      "type": "event"
    },
    {
      "anonymous": false,
      "inputs": [
        {
          "indexed": true,
          "internalType": "address",
          "name": "operator",
          "type": "address"
        },
        {
          "indexed": true,
          "internalType": "address",
          "name": "from",
          "type": "address"
        },
        {
          "indexed": true,
          "internalType": "address",
          "name": "to",
          "type": "address"
        },
        {
          "indexed": false,
          "internalType": "uint256[]",
          "name": "ids",
          "type": "uint256[]"
        },
        {
          "indexed": false,
          "internalType": "uint256[]",
          "name": "values",
          "type": "uint256[]"
        }
      ],
      "name": "TransferBatch",
      "type": "event"
    },
    {
      "anonymous": false,
      "inputs": [
        {
          "indexed": true,
          "internalType": "address",
          "name": "operator",
          "type": "address"
        },
        {
          "indexed": true,
          "internalType": "address",
          "name": "from",
          "type": "address"
        },
        {
          "indexed": true,
          "internalType": "address",
          "name": "to",
          "type": "address"
        },
        {
          "indexed": false,
          "internalType": "uint256",
          "name": "id",
          "type": "uint256"
        },
        {
          "indexed": false,
          "internalType": "uint256",
          "name": "value",
          "type": "uint256"
        }
      ],
      "name": "TransferSingle",
      "type": "event"
    },
    {
      "anonymous": false,
      "inputs": [
        {
          "indexed": false,
          "internalType": "string",
          "name": "value",
          "type": "string"
        },
        {
          "indexed": true,
          "internalType": "uint256",
          "name": "id",
          "type": "uint256"
        }
      ],
      "name": "URI",
      "type": "event"
    },
    {
      "inputs": [
        {
          "internalType": "address",
          "name": "account",
          "type": "address"
        },
        {
          "internalType": "uint256",
          "name": "id",
          "type": "uint256"
        }
      ],
      "name": "balanceOf",
      "outputs": [
        {
          "internalType": "uint256",
          "name": "",
          "type": "uint256"
        }
      ],
      "stateMutability": "view",
      "type": "function"
    },
    {
      "inputs": [
        {
          "internalType": "address[]",
          "name": "accounts",
          "type": "address[]"
        },
        {
          "internalType": "uint256[]",
          "name": "ids",
          "type": "uint256[]"
        }
      ],
      "name": "balanceOfBatch",
      "outputs": [
        {
          "internalType": "uint256[]",
          "name": "",
          "type": "uint256[]"
        }
      ],
      "stateMutability": "view",
      "type": "function"
    },
    {
      "inputs": [],
      "name": "baseURI",
      "outputs": [
        {
          "internalType": "string",
          "name": "",
          "type": "string"
        }
      ],
      "stateMutability": "view",
      "type": "function"
    },
    {
      "inputs": [
        {
          "internalType": "address",
          "name": "account_",
          "type": "address"
        },
        {
          "internalType": "uint256",
          "name": "tokenId_",
          "type": "uint256"
        },
        {
          "internalType": "uint64",
          "name": "proofId_",
          "type": "uint64"
        },
        {
          "internalType": "bytes32[]",
          "name": "proof_",
          "type": "bytes32[]"
        }
      ],
      "name": "check",
      "outputs": [
        {
          "internalType": "bytes32",
          "name": "merkleRoot",
          "type": "bytes32"
        },
        {
          "internalType": "uint256",
          "name": "timestamp",
          "type": "uint256"
        },
        {
          "internalType": "uint8",
          "name": "err",
          "type": "uint8"
        }
      ],
      "stateMutability": "view",
      "type": "function"
    },
    {
      "inputs": [],
      "name": "contractURI",
      "outputs": [
        {
          "internalType": "string",
          "name": "",
          "type": "string"
        }
      ],
      "stateMutability": "view",
      "type": "function"
    },
    {
      "inputs": [],
      "name": "deleteDefaultRoyalty",
      "outputs": [],
      "stateMutability": "nonpayable",
      "type": "function"
    },
    {
      "inputs": [
        {
          "internalType": "uint256",
          "name": "id",
          "type": "uint256"
        }
      ],
      "name": "exists",
      "outputs": [
        {
          "internalType": "bool",
          "name": "",
          "type": "bool"
        }
      ],
      "stateMutability": "view",
      "type": "function"
    },
    {
      "inputs": [
        {
          "internalType": "uint256",
          "name": "tokenId_",
          "type": "uint256"
        }
      ],
      "name": "getWhitelist",
      "outputs": [
        {
          "internalType": "bytes32",
          "name": "merkleRoot",
          "type": "bytes32"
        },
        {
          "internalType": "uint256",
          "name": "timestamp",
          "type": "uint256"
        }
      ],
      "stateMutability": "view",
      "type": "function"
    },
    {
      "inputs": [
        {
          "internalType": "address",
          "name": "account",
          "type": "address"
        },
        {
          "internalType": "address",
          "name": "operator",
          "type": "address"
        }
      ],
      "name": "isApprovedForAll",
      "outputs": [
        {
          "internalType": "bool",
          "name": "",
          "type": "bool"
        }
      ],
      "stateMutability": "view",
      "type": "function"
    },
    {
      "inputs": [
        {
          "internalType": "uint256",
          "name": "tokenId_",
          "type": "uint256"
        },
        {
          "internalType": "address",
          "name": "account_",
          "type": "address"
        }
      ],
      "name": "isClaimedAccount",
      "outputs": [
        {
          "internalType": "bool",
          "name": "",
          "type": "bool"
        }
      ],
      "stateMutability": "view",
      "type": "function"
    },
    {
      "inputs": [
        {
          "internalType": "uint256",
          "name": "tokenId_",
          "type": "uint256"
        },
        {
          "internalType": "uint64",
          "name": "proofId_",
          "type": "uint64"
        }
      ],
      "name": "isClaimedProof",
      "outputs": [
        {
          "internalType": "bool",
          "name": "",
          "type": "bool"
        }
      ],
      "stateMutability": "view",
      "type": "function"
    },
    {
      "inputs": [
        {
          "internalType": "address",
          "name": "account_",
          "type": "address"
        }
      ],
      "name": "isHost",
      "outputs": [
        {
          "internalType": "bool",
          "name": "",
          "type": "bool"
        }
      ],
      "stateMutability": "view",
      "type": "function"
    },
    {
      "inputs": [
        {
          "internalType": "uint256",
          "name": "tokenId_",
          "type": "uint256"
        },
        {
          "internalType": "uint64",
          "name": "proofId_",
          "type": "uint64"
        },
        {
          "internalType": "bytes32[]",
          "name": "proof_",
          "type": "bytes32[]"
        }
      ],
      "name": "mint",
      "outputs": [],
      "stateMutability": "nonpayable",
      "type": "function"
    },
    {
      "inputs": [],
      "name": "name",
      "outputs": [
        {
          "internalType": "string",
          "name": "",
          "type": "string"
        }
      ],
      "stateMutability": "view",
      "type": "function"
    },
    {
      "inputs": [],
      "name": "owner",
      "outputs": [
        {
          "internalType": "address",
          "name": "",
          "type": "address"
        }
      ],
      "stateMutability": "view",
      "type": "function"
    },
    {
      "inputs": [],
      "name": "renounceOwnership",
      "outputs": [],
      "stateMutability": "nonpayable",
      "type": "function"
    },
    {
      "inputs": [
        {
          "internalType": "uint256",
          "name": "tokenId_",
          "type": "uint256"
        }
      ],
      "name": "resetTokenRoyalty",
      "outputs": [],
      "stateMutability": "nonpayable",
      "type": "function"
    },
    {
      "inputs": [
        {
          "internalType": "address",
          "name": "account_",
          "type": "address"
        }
      ],
      "name": "revokeHost",
      "outputs": [],
      "stateMutability": "nonpayable",
      "type": "function"
    },
    {
      "inputs": [
        {
          "internalType": "uint256",
          "name": "_tokenId",
          "type": "uint256"
        },
        {
          "internalType": "uint256",
          "name": "_salePrice",
          "type": "uint256"
        }
      ],
      "name": "royaltyInfo",
      "outputs": [
        {
          "internalType": "address",
          "name": "",
          "type": "address"
        },
        {
          "internalType": "uint256",
          "name": "",
          "type": "uint256"
        }
      ],
      "stateMutability": "view",
      "type": "function"
    },
    {
      "inputs": [
        {
          "internalType": "address",
          "name": "from",
          "type": "address"
        },
        {
          "internalType": "address",
          "name": "to",
          "type": "address"
        },
        {
          "internalType": "uint256[]",
          "name": "ids",
          "type": "uint256[]"
        },
        {
          "internalType": "uint256[]",
          "name": "amounts",
          "type": "uint256[]"
        },
        {
          "internalType": "bytes",
          "name": "data",
          "type": "bytes"
        }
      ],
      "name": "safeBatchTransferFrom",
      "outputs": [],
      "stateMutability": "nonpayable",
      "type": "function"
    },
    {
      "inputs": [
        {
          "internalType": "address",
          "name": "from",
          "type": "address"
        },
        {
          "internalType": "address",
          "name": "to",
          "type": "address"
        },
        {
          "internalType": "uint256",
          "name": "id",
          "type": "uint256"
        },
        {
          "internalType": "uint256",
          "name": "amount",
          "type": "uint256"
        },
        {
          "internalType": "bytes",
          "name": "data",
          "type": "bytes"
        }
      ],
      "name": "safeTransferFrom",
      "outputs": [],
      "stateMutability": "nonpayable",
      "type": "function"
    },
    {
      "inputs": [
        {
          "internalType": "address",
          "name": "operator",
          "type": "address"
        },
        {
          "internalType": "bool",
          "name": "approved",
          "type": "bool"
        }
      ],
      "name": "setApprovalForAll",
      "outputs": [],
      "stateMutability": "nonpayable",
      "type": "function"
    },
    {
      "inputs": [
        {
          "internalType": "string",
          "name": "uri_",
          "type": "string"
        }
      ],
      "name": "setContractURI",
      "outputs": [],
      "stateMutability": "nonpayable",
      "type": "function"
    },
    {
      "inputs": [
        {
          "internalType": "address",
          "name": "receiver_",
          "type": "address"
        },
        {
          "internalType": "uint96",
          "name": "feeNumerator_",
          "type": "uint96"
        }
      ],
      "name": "setDefaultRoyalty",
      "outputs": [],
      "stateMutability": "nonpayable",
      "type": "function"
    },
    {
      "inputs": [
        {
          "internalType": "address",
          "name": "account_",
          "type": "address"
        }
      ],
      "name": "setHost",
      "outputs": [],
      "stateMutability": "nonpayable",
      "type": "function"
    },
    {
      "inputs": [
        {
          "internalType": "uint256",
          "name": "tokenId_",
          "type": "uint256"
        },
        {
          "internalType": "address",
          "name": "receiver_",
          "type": "address"
        },
        {
          "internalType": "uint96",
          "name": "feeNumerator_",
          "type": "uint96"
        }
      ],
      "name": "setTokenRoyalty",
      "outputs": [],
      "stateMutability": "nonpayable",
      "type": "function"
    },
    {
      "inputs": [
        {
          "internalType": "string",
          "name": "uri_",
          "type": "string"
        }
      ],
      "name": "setURI",
      "outputs": [],
      "stateMutability": "nonpayable",
      "type": "function"
    },
    {
      "inputs": [
        {
          "internalType": "uint256",
          "name": "tokenId_",
          "type": "uint256"
        },
        {
          "internalType": "bytes32",
          "name": "merkleRoot_",
          "type": "bytes32"
        },
        {
          "internalType": "uint256",
          "name": "timestamp_",
          "type": "uint256"
        }
      ],
      "name": "setWhitelist",
      "outputs": [],
      "stateMutability": "nonpayable",
      "type": "function"
    },
    {
      "inputs": [
        {
          "internalType": "uint256",
          "name": "tokenId_",
          "type": "uint256"
        },
        {
          "internalType": "bytes32",
          "name": "merkleRoot_",
          "type": "bytes32"
        }
      ],
      "name": "setWhitelistMerkleRoot",
      "outputs": [],
      "stateMutability": "nonpayable",
      "type": "function"
    },
    {
      "inputs": [
        {
          "internalType": "uint256",
          "name": "tokenId_",
          "type": "uint256"
        },
        {
          "internalType": "uint256",
          "name": "timestamp_",
          "type": "uint256"
        }
      ],
      "name": "setWhitelistTimestamp",
      "outputs": [],
      "stateMutability": "nonpayable",
      "type": "function"
    },
    {
      "inputs": [
        {
          "internalType": "uint256",
          "name": "id",
          "type": "uint256"
        }
      ],
      "name": "supplyOf",
      "outputs": [
        {
          "internalType": "uint256",
          "name": "",
          "type": "uint256"
        }
      ],
      "stateMutability": "view",
      "type": "function"
    },
    {
      "inputs": [
        {
          "internalType": "bytes4",
          "name": "interfaceId",
          "type": "bytes4"
        }
      ],
      "name": "supportsInterface",
      "outputs": [
        {
          "internalType": "bool",
          "name": "",
          "type": "bool"
        }
      ],
      "stateMutability": "view",
      "type": "function"
    },
    {
      "inputs": [],
      "name": "symbol",
      "outputs": [
        {
          "internalType": "string",
          "name": "",
          "type": "string"
        }
      ],
      "stateMutability": "view",
      "type": "function"
    },
    {
      "inputs": [],
      "name": "totalSupply",
      "outputs": [
        {
          "internalType": "uint256",
          "name": "",
          "type": "uint256"
        }
      ],
      "stateMutability": "view",
      "type": "function"
    },
    {
      "inputs": [
        {
          "internalType": "address",
          "name": "newOwner",
          "type": "address"
        }
      ],
      "name": "transferOwnership",
      "outputs": [],
      "stateMutability": "nonpayable",
      "type": "function"
    },
    {
      "inputs": [
        {
          "internalType": "uint256",
          "name": "tokenId_",
          "type": "uint256"
        }
      ],
      "name": "uri",
      "outputs": [
        {
          "internalType": "string",
          "name": "",
          "type": "string"
        }
      ],
      "stateMutability": "view",
      "type": "function"
    },
    {
      "inputs": [
        {
          "internalType": "uint256",
          "name": "tokenId_",
          "type": "uint256"
        },
        {
          "internalType": "uint64",
          "name": "proofId_",
          "type": "uint64"
        },
        {
          "internalType": "bytes32[]",
          "name": "proof_",
          "type": "bytes32[]"
        }
      ],
      "name": "verify",
      "outputs": [
        {
          "internalType": "bool",
          "name": "",
          "type": "bool"
        }
      ],
      "stateMutability": "view",
      "type": "function"
    }
  ],
  "bytecode": "0x60806040523480156200001157600080fd5b5060405162003238380380620032388339810160408190526200003491620001b3565b828282620000428162000086565b506003620000518382620002d3565b506004620000608282620002d3565b5050506200007d620000776200009860201b60201c565b6200009c565b5050506200039f565b6002620000948282620002d3565b5050565b3390565b600a80546001600160a01b038381166001600160a01b0319831681179093556040519116919082907f8be0079c531659141344cd1fd0a4f28419497f9722a3daafe3b4186f6b6457e090600090a35050565b634e487b7160e01b600052604160045260246000fd5b600082601f8301126200011657600080fd5b81516001600160401b0380821115620001335762000133620000ee565b604051601f8301601f19908116603f011681019082821181831017156200015e576200015e620000ee565b816040528381526020925086838588010111156200017b57600080fd5b600091505b838210156200019f578582018301518183018401529082019062000180565b600093810190920192909252949350505050565b600080600060608486031215620001c957600080fd5b83516001600160401b0380821115620001e157600080fd5b620001ef8783880162000104565b945060208601519150808211156200020657600080fd5b620002148783880162000104565b935060408601519150808211156200022b57600080fd5b506200023a8682870162000104565b9150509250925092565b600181811c908216806200025957607f821691505b6020821081036200027a57634e487b7160e01b600052602260045260246000fd5b50919050565b601f821115620002ce57600081815260208120601f850160051c81016020861015620002a95750805b601f850160051c820191505b81811015620002ca57828155600101620002b5565b5050505b505050565b81516001600160401b03811115620002ef57620002ef620000ee565b620003078162000300845462000244565b8462000280565b602080601f8311600181146200033f5760008415620003265750858301515b600019600386901b1c1916600185901b178555620002ca565b600085815260208120601f198616915b8281101562000370578886015182559484019460019091019084016200034f565b50858210156200038f5787850151600019600388901b60f8161c191681555b5050505050600190811b01905550565b612e8980620003af6000396000f3fe608060405234801561001057600080fd5b50600436106102265760003560e01c8063715018a611610130578063aa1b103f116100b8578063e8a3d4851161007c578063e8a3d4851461055f578063e985e9c514610567578063eb2931b7146105a3578063f242432a146105b6578063f2fde38b146105c957600080fd5b8063aa1b103f146104ed578063c15b38d6146104f5578063c85e0be214610508578063d16d09641461051b578063e4075c461461054c57600080fd5b8063938e3d7b116100ff578063938e3d7b1461044957806395d89b411461045c57806396db752a14610464578063a22cb465146104a1578063a584379e146104b457600080fd5b8063715018a6146103f35780638806792f146103fb5780638a616bc01461041b5780638da5cb5b1461042e57600080fd5b80632a55205a116101b35780634f558e79116101825780634f558e79146103905780635944c753146103b25780635a93bd9d146103c55780636c0360eb146103d85780636f60e1c2146103e057600080fd5b80632a55205a146103185780632eb2c2d61461034a5780634e01152f1461035d5780634e1273f41461037057600080fd5b806306fdde03116101fa57806306fdde031461029c5780630e89341c146102b157806314baf716146102c457806318160ddd146102fd5780631b7b3edf1461030557600080fd5b8062fdd58e1461022b57806301ffc9a71461025157806302fe53051461027457806304634d8d14610289575b600080fd5b61023e610239366004611fdc565b6105dc565b6040519081526020015b60405180910390f35b61026461025f36600461201c565b610675565b6040519015158152602001610248565b610287610282366004612039565b61069a565b005b6102876102973660046120c1565b6106e5565b6102a46106f7565b6040516102489190612144565b6102a46102bf366004612157565b610789565b6102646102d2366004612187565b6000918252600d602090815260408084206001600160401b0393909316845291905290205460ff1690565b60065461023e565b6102876103133660046121ee565b6107bd565b61032b610326366004612247565b610a1d565b604080516001600160a01b039093168352602083019190915201610248565b6102876103583660046123b2565b610acb565b61028761036b366004612247565b610b17565b61038361037e36600461245b565b610b51565b6040516102489190612560565b61026461039e366004612157565b600090815260076020526040902054151590565b6102876103c0366004612573565b610c7a565b6102876103d33660046125af565b610c92565b6102a4610cbb565b6102646103ee3660046121ee565b610cca565b610287610d63565b61023e610409366004612157565b60009081526007602052604090205490565b610287610429366004612157565b610d77565b600a546040516001600160a01b039091168152602001610248565b610287610457366004612039565b610d93565b6102a4610dda565b61048c610472366004612157565b6000908152600c6020526040902080546001909101549091565b60408051928352602083019190915201610248565b6102876104af3660046125ca565b610de9565b6102646104c2366004612606565b6000918252600e602090815260408084206001600160a01b0393909316845291905290205460ff1690565b610287610df4565b610287610503366004612247565b610e06565b6102876105163660046125af565b610e7b565b61052e610529366004612629565b610ea7565b60408051938452602084019290925260ff1690820152606001610248565b61028761055a366004612697565b610f3f565b6102a4610f78565b6102646105753660046126c3565b6001600160a01b03918216600090815260016020908152604080832093909416825291909152205460ff1690565b6102646105b13660046125af565b610f87565b6102876105c43660046126ed565b610fd5565b6102876105d73660046125af565b61101a565b60006001600160a01b03831661064c5760405162461bcd60e51b815260206004820152602a60248201527f455243313135353a2061646472657373207a65726f206973206e6f742061207660448201526930b634b21037bbb732b960b11b60648201526084015b60405180910390fd5b506000818152602081815260408083206001600160a01b03861684529091529020545b92915050565b60006001600160e01b0319821663152a902d60e11b148061066f575061066f82611090565b6106a26110e0565b6106e182828080601f01602080910402602001604051908101604052809392919081815260200183838082843760009201919091525061113a92505050565b5050565b6106ed6110e0565b6106e18282611146565b60606003805461070690612751565b80601f016020809104026020016040519081016040528092919081815260200182805461073290612751565b801561077f5780601f106107545761010080835404028352916020019161077f565b820191906000526020600020905b81548152906001019060200180831161076257829003601f168201915b5050505050905090565b6060600261079683611200565b6040516020016107a792919061278b565b6040516020818303038152906040529050919050565b6000848152600c6020526040902060010154801561081d578042111561081d5760405162461bcd60e51b8152602060048201526015602482015274135a5b9d0e88191958591b1a5b99481b5a5cdcd959605a1b6044820152606401610643565b6000858152600e602090815260408083203380855292529091205460ff161561084582611308565b61084e88611200565b60405160200161085f929190612822565b6040516020818303038152906040529061088c5760405162461bcd60e51b81526004016106439190612144565b506000868152600d602090815260408083206001600160401b03891680855292529091205460ff1615906108bf90611200565b6108c888611200565b6040516020016108d9929190612894565b604051602081830303815290604052906109065760405162461bcd60e51b81526004016106439190612144565b5061091386868686610cca565b6109565760405162461bcd60e51b815260206004820152601460248201527326b4b73a1d1034b73b30b634b210383937b7b31760611b6044820152606401610643565b6000868152600d602090815260408083206001600160401b038916845282528083208054600160ff1991821681179092558a8552600e84528285206001600160a01b0387168652845282852080549091168217905581519283019091529181526109c491839189919061131e565b604080516001600160a01b0383168152602081018890526001600160401b0387168183015290517f4c209b5fc8ad50758f13e2e1088ba56a560dff690a1c6fef26394f4c03821c4f9181900360600190a1505050505050565b60008281526009602090815260408083208151808301909252546001600160a01b038116808352600160a01b9091046001600160601b0316928201929092528291610a925750604080518082019091526008546001600160a01b0381168252600160a01b90046001600160601b031660208201525b602081015160009061271090610ab1906001600160601b03168761293f565b610abb919061296c565b91519350909150505b9250929050565b6001600160a01b038516331480610ae75750610ae78533610575565b610b035760405162461bcd60e51b815260040161064390612980565b610b108585858585611441565b5050505050565b610b2033610f87565b610b3c5760405162461bcd60e51b8152600401610643906129cf565b6000918252600c602052604090912060010155565b60608151835114610bb65760405162461bcd60e51b815260206004820152602960248201527f455243313135353a206163636f756e747320616e6420696473206c656e677468604482015268040dad2e6dac2e8c6d60bb1b6064820152608401610643565b600083516001600160401b03811115610bd157610bd1612269565b604051908082528060200260200182016040528015610bfa578160200160208202803683370190505b50905060005b8451811015610c7257610c45858281518110610c1e57610c1e612a1a565b6020026020010151858381518110610c3857610c38612a1a565b60200260200101516105dc565b828281518110610c5757610c57612a1a565b6020908102919091010152610c6b81612a30565b9050610c00565b509392505050565b610c826110e0565b610c8d83838361162c565b505050565b610c9a6110e0565b6001600160a01b03166000908152600b60205260409020805460ff19169055565b60606002805461070690612751565b6000808585604051602001610cf692919091825260c01b6001600160c01b031916602082015260280190565b604051602081830303815290604052805190602001209050610d5984848080602002602001604051908101604052809392919081815260200183836020028082843760009201829052508b8152600c602052604090205492508591506116f79050565b9695505050505050565b610d6b6110e0565b610d75600061170d565b565b610d7f6110e0565b600090815260096020526040812055565b50565b610d9b6110e0565b6106e182828080601f01602080910402602001604051908101604052809392919081815260200183838082843760009201919091525061175f92505050565b60606004805461070690612751565b6106e133838361176b565b610dfc6110e0565b610d756000600855565b610e0f33610f87565b610e2b5760405162461bcd60e51b8152600401610643906129cf565b6000828152600c6020908152604080832084905560079091529020546000036106e1576106e1610e63600a546001600160a01b031690565b8360016040518060200160405280600081525061131e565b610e836110e0565b6001600160a01b03166000908152600b60205260409020805460ff19166001179055565b6000848152600c602090815260408083208054600190910154600e84528285206001600160a01b038b1686529093529083205490929060ff1615610eed57506001610f34565b6000878152600d602090815260408083206001600160401b038a16845290915290205460ff1615610f2057506002610f34565b610f2c87878787610cca565b610f34575060035b955095509592505050565b610f4833610f87565b610f645760405162461bcd60e51b8152600401610643906129cf565b610f6e8383610e06565b610c8d8382610b17565b60606005805461070690612751565b6001600160a01b0381166000908152600b602052604081205460ff168061066f5750816001600160a01b0316610fc5600a546001600160a01b031690565b6001600160a01b03161492915050565b6001600160a01b038516331480610ff15750610ff18533610575565b61100d5760405162461bcd60e51b815260040161064390612980565b610b10858585858561184b565b6110226110e0565b6001600160a01b0381166110875760405162461bcd60e51b815260206004820152602660248201527f4f776e61626c653a206e6577206f776e657220697320746865207a65726f206160448201526564647265737360d01b6064820152608401610643565b610d908161170d565b60006001600160e01b03198216636cdb3d1360e11b14806110c157506001600160e01b031982166303a24d0760e21b145b8061066f57506301ffc9a760e01b6001600160e01b031983161461066f565b600a546001600160a01b03163314610d755760405162461bcd60e51b815260206004820181905260248201527f4f776e61626c653a2063616c6c6572206973206e6f7420746865206f776e65726044820152606401610643565b60026106e18282612a8f565b6127106001600160601b03821611156111715760405162461bcd60e51b815260040161064390612b4e565b6001600160a01b0382166111c75760405162461bcd60e51b815260206004820152601960248201527f455243323938313a20696e76616c6964207265636569766572000000000000006044820152606401610643565b604080518082019091526001600160a01b039092168083526001600160601b039091166020909201829052600160a01b90910217600855565b6060816000036112275750506040805180820190915260018152600360fc1b602082015290565b8160005b8115611251578061123b81612a30565b915061124a9050600a8361296c565b915061122b565b6000816001600160401b0381111561126b5761126b612269565b6040519080825280601f01601f191660200182016040528015611295576020820181803683370190505b5090505b8415611300576112aa600183612b98565b91506112b7600a86612bab565b6112c2906030612bbf565b60f81b8183815181106112d7576112d7612a1a565b60200101906001600160f81b031916908160001a9053506112f9600a8661296c565b9450611299565b949350505050565b606061066f6001600160a01b0383166014611983565b6001600160a01b03841661137e5760405162461bcd60e51b815260206004820152602160248201527f455243313135353a206d696e7420746f20746865207a65726f206164647265736044820152607360f81b6064820152608401610643565b33600061138a85611b25565b9050600061139785611b25565b90506113a883600089858589611b70565b6000868152602081815260408083206001600160a01b038b168452909152812080548792906113d8908490612bbf565b909155505060408051878152602081018790526001600160a01b03808a1692600092918716917fc3d58168c5ae7397731d063d5bbf3d657854427343f4c083240f7aacaa2d0f62910160405180910390a461143883600089898989611d36565b50505050505050565b81518351146114a35760405162461bcd60e51b815260206004820152602860248201527f455243313135353a2069647320616e6420616d6f756e7473206c656e677468206044820152670dad2e6dac2e8c6d60c31b6064820152608401610643565b6001600160a01b0384166114c95760405162461bcd60e51b815260040161064390612bd2565b336114d8818787878787611b70565b60005b84518110156115be5760008582815181106114f8576114f8612a1a565b60200260200101519050600085838151811061151657611516612a1a565b602090810291909101810151600084815280835260408082206001600160a01b038e1683529093529190912054909150818110156115665760405162461bcd60e51b815260040161064390612c17565b6000838152602081815260408083206001600160a01b038e8116855292528083208585039055908b168252812080548492906115a3908490612bbf565b92505081905550505050806115b790612a30565b90506114db565b50846001600160a01b0316866001600160a01b0316826001600160a01b03167f4a39dc06d4c0dbc64b70af90fd698a233a518aa5d07e595d983b8c0526c8f7fb878760405161160e929190612c61565b60405180910390a4611624818787878787611e91565b505050505050565b6127106001600160601b03821611156116575760405162461bcd60e51b815260040161064390612b4e565b6001600160a01b0382166116ad5760405162461bcd60e51b815260206004820152601b60248201527f455243323938313a20496e76616c696420706172616d657465727300000000006044820152606401610643565b6040805180820182526001600160a01b0393841681526001600160601b0392831660208083019182526000968752600990529190942093519051909116600160a01b029116179055565b6000826117048584611f4c565b14949350505050565b600a80546001600160a01b038381166001600160a01b0319831681179093556040519116919082907f8be0079c531659141344cd1fd0a4f28419497f9722a3daafe3b4186f6b6457e090600090a35050565b60056106e18282612a8f565b816001600160a01b0316836001600160a01b0316036117de5760405162461bcd60e51b815260206004820152602960248201527f455243313135353a2073657474696e6720617070726f76616c20737461747573604482015268103337b91039b2b63360b91b6064820152608401610643565b6001600160a01b03838116600081815260016020908152604080832094871680845294825291829020805460ff191686151590811790915591519182527f17307eab39ab6107e8899845ad3d59bd9653f200f220920489ca2b5937696c31910160405180910390a3505050565b6001600160a01b0384166118715760405162461bcd60e51b815260040161064390612bd2565b33600061187d85611b25565b9050600061188a85611b25565b905061189a838989858589611b70565b6000868152602081815260408083206001600160a01b038c168452909152902054858110156118db5760405162461bcd60e51b815260040161064390612c17565b6000878152602081815260408083206001600160a01b038d8116855292528083208985039055908a16825281208054889290611918908490612bbf565b909155505060408051888152602081018890526001600160a01b03808b16928c821692918816917fc3d58168c5ae7397731d063d5bbf3d657854427343f4c083240f7aacaa2d0f62910160405180910390a4611978848a8a8a8a8a611d36565b505050505050505050565b6060600061199283600261293f565b61199d906002612bbf565b6001600160401b038111156119b4576119b4612269565b6040519080825280601f01601f1916602001820160405280156119de576020820181803683370190505b509050600360fc1b816000815181106119f9576119f9612a1a565b60200101906001600160f81b031916908160001a905350600f60fb1b81600181518110611a2857611a28612a1a565b60200101906001600160f81b031916908160001a9053506000611a4c84600261293f565b611a57906001612bbf565b90505b6001811115611acf576f181899199a1a9b1b9c1cb0b131b232b360811b85600f1660108110611a8b57611a8b612a1a565b1a60f81b828281518110611aa157611aa1612a1a565b60200101906001600160f81b031916908160001a90535060049490941c93611ac881612c8f565b9050611a5a565b508315611b1e5760405162461bcd60e51b815260206004820181905260248201527f537472696e67733a20686578206c656e67746820696e73756666696369656e746044820152606401610643565b9392505050565b60408051600180825281830190925260609160009190602080830190803683370190505090508281600081518110611b5f57611b5f612a1a565b602090810291909101015292915050565b6001600160a01b038516611c295760005b8351811015611c2757828181518110611b9c57611b9c612a1a565b602002602001015160076000868481518110611bba57611bba612a1a565b602002602001015181526020019081526020016000206000828254611bdf9190612bbf565b92505081905550828181518110611bf857611bf8612a1a565b602002602001015160066000828254611c119190612bbf565b90915550611c20905081612a30565b9050611b81565b505b6001600160a01b0384166116245760005b8351811015611438576000848281518110611c5757611c57612a1a565b602002602001015190506000848381518110611c7557611c75612a1a565b60200260200101519050600060076000848152602001908152602001600020549050818110158015611ca957508160065410155b611d065760405162461bcd60e51b815260206004820152602860248201527f455243313135353a206275726e20616d6f756e74206578636565647320746f74604482015267616c537570706c7960c01b6064820152608401610643565b6000928352600760205260409092209181900390915560068054919091039055611d2f81612a30565b9050611c3a565b6001600160a01b0384163b156116245760405163f23a6e6160e01b81526001600160a01b0385169063f23a6e6190611d7a9089908990889088908890600401612ca6565b6020604051808303816000875af1925050508015611db5575060408051601f3d908101601f19168201909252611db291810190612ceb565b60015b611e6157611dc1612d08565b806308c379a003611dfa5750611dd5612d24565b80611de05750611dfc565b8060405162461bcd60e51b81526004016106439190612144565b505b60405162461bcd60e51b815260206004820152603460248201527f455243313135353a207472616e7366657220746f206e6f6e20455243313135356044820152732932b1b2b4bb32b91034b6b83632b6b2b73a32b960611b6064820152608401610643565b6001600160e01b0319811663f23a6e6160e01b146114385760405162461bcd60e51b815260040161064390612dad565b6001600160a01b0384163b156116245760405163bc197c8160e01b81526001600160a01b0385169063bc197c8190611ed59089908990889088908890600401612df5565b6020604051808303816000875af1925050508015611f10575060408051601f3d908101601f19168201909252611f0d91810190612ceb565b60015b611f1c57611dc1612d08565b6001600160e01b0319811663bc197c8160e01b146114385760405162461bcd60e51b815260040161064390612dad565b600081815b8451811015610c7257611f7d82868381518110611f7057611f70612a1a565b6020026020010151611f91565b915080611f8981612a30565b915050611f51565b6000818310611fad576000828152602084905260409020611b1e565b6000838152602083905260409020611b1e565b80356001600160a01b0381168114611fd757600080fd5b919050565b60008060408385031215611fef57600080fd5b611ff883611fc0565b946020939093013593505050565b6001600160e01b031981168114610d9057600080fd5b60006020828403121561202e57600080fd5b8135611b1e81612006565b6000806020838503121561204c57600080fd5b82356001600160401b038082111561206357600080fd5b818501915085601f83011261207757600080fd5b81358181111561208657600080fd5b86602082850101111561209857600080fd5b60209290920196919550909350505050565b80356001600160601b0381168114611fd757600080fd5b600080604083850312156120d457600080fd5b6120dd83611fc0565b91506120eb602084016120aa565b90509250929050565b60005b8381101561210f5781810151838201526020016120f7565b50506000910152565b600081518084526121308160208601602086016120f4565b601f01601f19169290920160200192915050565b602081526000611b1e6020830184612118565b60006020828403121561216957600080fd5b5035919050565b80356001600160401b0381168114611fd757600080fd5b6000806040838503121561219a57600080fd5b823591506120eb60208401612170565b60008083601f8401126121bc57600080fd5b5081356001600160401b038111156121d357600080fd5b6020830191508360208260051b8501011115610ac457600080fd5b6000806000806060858703121561220457600080fd5b8435935061221460208601612170565b925060408501356001600160401b0381111561222f57600080fd5b61223b878288016121aa565b95989497509550505050565b6000806040838503121561225a57600080fd5b50508035926020909101359150565b634e487b7160e01b600052604160045260246000fd5b601f8201601f191681016001600160401b03811182821017156122a4576122a4612269565b6040525050565b60006001600160401b038211156122c4576122c4612269565b5060051b60200190565b600082601f8301126122df57600080fd5b813560206122ec826122ab565b6040516122f9828261227f565b83815260059390931b850182019282810191508684111561231957600080fd5b8286015b84811015612334578035835291830191830161231d565b509695505050505050565b600082601f83011261235057600080fd5b81356001600160401b0381111561236957612369612269565b604051612380601f8301601f19166020018261227f565b81815284602083860101111561239557600080fd5b816020850160208301376000918101602001919091529392505050565b600080600080600060a086880312156123ca57600080fd5b6123d386611fc0565b94506123e160208701611fc0565b935060408601356001600160401b03808211156123fd57600080fd5b61240989838a016122ce565b9450606088013591508082111561241f57600080fd5b61242b89838a016122ce565b9350608088013591508082111561244157600080fd5b5061244e8882890161233f565b9150509295509295909350565b6000806040838503121561246e57600080fd5b82356001600160401b038082111561248557600080fd5b818501915085601f83011261249957600080fd5b813560206124a6826122ab565b6040516124b3828261227f565b83815260059390931b85018201928281019150898411156124d357600080fd5b948201945b838610156124f8576124e986611fc0565b825294820194908201906124d8565b9650508601359250508082111561250e57600080fd5b5061251b858286016122ce565b9150509250929050565b600081518084526020808501945080840160005b8381101561255557815187529582019590820190600101612539565b509495945050505050565b602081526000611b1e6020830184612525565b60008060006060848603121561258857600080fd5b8335925061259860208501611fc0565b91506125a6604085016120aa565b90509250925092565b6000602082840312156125c157600080fd5b611b1e82611fc0565b600080604083850312156125dd57600080fd5b6125e683611fc0565b9150602083013580151581146125fb57600080fd5b809150509250929050565b6000806040838503121561261957600080fd5b823591506120eb60208401611fc0565b60008060008060006080868803121561264157600080fd5b61264a86611fc0565b94506020860135935061265f60408701612170565b925060608601356001600160401b0381111561267a57600080fd5b612686888289016121aa565b969995985093965092949392505050565b6000806000606084860312156126ac57600080fd5b505081359360208301359350604090920135919050565b600080604083850312156126d657600080fd5b6126df83611fc0565b91506120eb60208401611fc0565b600080600080600060a0868803121561270557600080fd5b61270e86611fc0565b945061271c60208701611fc0565b9350604086013592506060860135915060808601356001600160401b0381111561274557600080fd5b61244e8882890161233f565b600181811c9082168061276557607f821691505b60208210810361278557634e487b7160e01b600052602260045260246000fd5b50919050565b600080845461279981612751565b600182811680156127b157600181146127c6576127f5565b60ff19841687528215158302870194506127f5565b8860005260208060002060005b858110156127ec5781548a8201529084019082016127d3565b50505082870194505b5050505083516128098183602088016120f4565b64173539b7b760d91b9101908152600501949350505050565b6d026b4b73a1d1020b1b1b7bab73a160951b81526000835161284b81600e8501602088016120f4565b7f2068617320616c726561647920636c61696d656420546f6b656e494420230000600e91840191820152835161288881602c8401602088016120f4565b01602c01949350505050565b7f4d696e743a204d65726b6c652050726f6f6620494420230000000000000000008152600083516128cc8160178501602088016120f4565b6d20666f7220546f6b656e4944202360901b60179184019182015283516128fa8160258401602088016120f4565b75081a185cc8185b1c9958591e481899595b881d5cd95960521b60259290910191820152603b01949350505050565b634e487b7160e01b600052601160045260246000fd5b808202811582820484141761066f5761066f612929565b634e487b7160e01b600052601260045260246000fd5b60008261297b5761297b612956565b500490565b6020808252602f908201527f455243313135353a2063616c6c6572206973206e6f7420746f6b656e206f776e60408201526e195c881b9bdc88185c1c1c9bdd9959608a1b606082015260800190565b6020808252602b908201527f4d6f6e61726368313135354d696e7461626c653a2063616c6c6572206973206e60408201526a1bdd081d1a19481a1bdcdd60aa1b606082015260800190565b634e487b7160e01b600052603260045260246000fd5b600060018201612a4257612a42612929565b5060010190565b601f821115610c8d57600081815260208120601f850160051c81016020861015612a705750805b601f850160051c820191505b8181101561162457828155600101612a7c565b81516001600160401b03811115612aa857612aa8612269565b612abc81612ab68454612751565b84612a49565b602080601f831160018114612af15760008415612ad95750858301515b600019600386901b1c1916600185901b178555611624565b600085815260208120601f198616915b82811015612b2057888601518255948401946001909101908401612b01565b5085821015612b3e5787850151600019600388901b60f8161c191681555b5050505050600190811b01905550565b6020808252602a908201527f455243323938313a20726f79616c7479206665652077696c6c206578636565646040820152692073616c65507269636560b01b606082015260800190565b8181038181111561066f5761066f612929565b600082612bba57612bba612956565b500690565b8082018082111561066f5761066f612929565b60208082526025908201527f455243313135353a207472616e7366657220746f20746865207a65726f206164604082015264647265737360d81b606082015260800190565b6020808252602a908201527f455243313135353a20696e73756666696369656e742062616c616e636520666f60408201526939103a3930b739b332b960b11b606082015260800190565b604081526000612c746040830185612525565b8281036020840152612c868185612525565b95945050505050565b600081612c9e57612c9e612929565b506000190190565b6001600160a01b03868116825285166020820152604081018490526060810183905260a060808201819052600090612ce090830184612118565b979650505050505050565b600060208284031215612cfd57600080fd5b8151611b1e81612006565b600060033d1115612d215760046000803e5060005160e01c5b90565b600060443d1015612d325790565b6040516003193d81016004833e81513d6001600160401b038160248401118184111715612d6157505050505090565b8285019150815181811115612d795750505050505090565b843d8701016020828501011115612d935750505050505090565b612da26020828601018761227f565b509095945050505050565b60208082526028908201527f455243313135353a204552433131353552656365697665722072656a656374656040820152676420746f6b656e7360c01b606082015260800190565b6001600160a01b0386811682528516602082015260a060408201819052600090612e2190830186612525565b8281036060840152612e338186612525565b90508281036080840152612e478185612118565b9897505050505050505056fea2646970667358221220d142d5f4883cc1c89a4840f0b6f59580b1706db2855e5ba83023a809cc7838b464736f6c63430008110033",
  "linkReferences": {},
  "deployedLinkReferences": {}
}